:020000040000FA
:100000000A128A11ED2FFF1B0D2883137F18831707
:100010000008840A0319FF0A080000308A00040857
:10002000840A82070034013400340A340034643412
:100030000034E83403341034273425346434203455
:1000400020342034253464342034203420342034C7
:100050002534643400345334313420342034203493
:100060005334323420342034203453343334003485
:1006E40001340C308316031399000800F0007008DD
:1006F400831203139300080083160313141C832B23
:10070400842B7E2B080064008001840A04060319EC
:1007140000340406862B0A128A117E230A128A11D7
:10072400831203131308080083160313981C9B2BCE
:100734009C2B962B70088312031399000800003039
:100744000A128A1110240A128A1101300A128A111B
:1007540010240A128A11080083160313981318131D
:10076400181218119810181083120313981783166F
:10077400031398160800F300831603138712731DDE
:10078400C42BC52BC92B720894008715CD2B700878
:100794007204940087117308710483120313940084
:1007A4000800F20083120313091472080A128A1152
:1007B40008250A128A118312031389140330F100E5
:1007C400F10BE22B8312031389100330F100F10BB8
:1007D400E92B2130F100F10BED2B080083160317F0
:1007E4008801890183160313071087100711071363
:1007F4008713860188018901831203138901860105
:100804008801071507148714F001F101F201203063
:100814000A128A11BD230A128A110800F3008312F6
:100824000313091073080A128A1108250A128A117F
:100834008312031389140330F100F10B1F2C83126C
:10084400031389100330F100F10B262C0630F2005B
:100854003030F100F10B2C2CF20B2C2C0000080092
:10086400F6007603031D372C382C442C7408803E84
:10087400F5007508F70077080A128A1110240A1285
:100884008A11552C02307606031D492C4A2C552C0E
:100894007408C03EF5007508F70077080A128A113B
:1008A40010240A128A11080083120313071003305C
:1008B400F2009730F100F10B5D2CF20B5D2C622CF1
:1008C40001300A128A1178230A128A110A128A1133
:1008D4008D230A128A11F1007108F3001A30F20014
:1008E400F830F100F10B742CF20B742C000083121D
:1008F40003130714730808008312031387100330CB
:10090400F2009730F100F10B852CF20B852C8A2C28
:1009140001300A128A1178230A128A110A128A11E2
:100924008D230A128A11F1007108F3000330F200DA
:100934009730F100F10B9C2CF20B9C2CA12C831210
:100944000313871473080800831203130711033079
:10095400F2009730F100F10BAD2CF20BAD2CB22C60
:1009640001300A128A1178230A128A110A128A1192
:100974008D230A128A11F1007108F3000330F2008A
:100984009730F100F10BC42CF20BC42CC92C831248
:100994000313071573080800780879040319D32C86
:1009A400D42C032DFD01FD0AE22C01300310F80DB7
:1009B400F90DFF3E031DD82C0130FC007C08FD0717
:1009C400F91FE52CE62CD72C79087B02031DEC2CAF
:1009D40078087A02031CEF2CF02CF62C7808FA0223
:1009E4007908031CFB03FB0201300310F90CF80C1B
:1009F400FF3E031DF72C0130FD02031D022D032DC4
:100A0400E62C7B08F9007A08F8000800F000701C56
:100A14000C2D0D2D112D831203130814142D831284
:100A240003130810F01C172D182D1A2D88141B2DD4
:100A34008810701D1E2D1F2D212D0815222D081123
:100A4400F01D252D262D282D8815292D8811701E81
:100A54002C2D2D2D2F2D0816302D0812F01E332D80
:100A6400342D362D8816372D8812701F3A2D3B2DC4
:100A74003D2D08173E2D0813F01F412D422D442D06
:100A84008817452D88130800F801F9016B2D7808A3
:100A94007307F6007408F5000318F50AF81F532DC0
:100AA400F5037508F700770883120313FF0076082F
:100AB40084000A128A1103200A128A110A128A1166
:100AC400D3230A128A110130F8070318F90A0030F7
:100AD400F90778087307F6007408F5000318F50A97
:100AE400F81F752DF5037508F700770883120313B3
:100AF400FF00760884000A128A1103200A128A1160
:100B0400003A031D862D872D492D0800F501F601B5
:100B14007008710403198F2D902DC72DF701F70A62
:100B24009E2D01300310F00DF10DFF3E031D942D99
:100B34000130F4007408F707F11FA12DA22D932DA5
:100B440001300310F50DF60DFF3E031DA32D7108B2
:100B54007302031DAF2D70087202031CB22DB32D56
:100B6400BA2D7008F2027108031CF303F302751422
:100B740001300310F10CF00CFF3E031DBB2D0130BE
:100B8400F702031DC62DC72DA22D7608F1007508A6
:100B9400F00008003430F500F130F400F40BD02DEF
:100BA400F50BD02DD52D30300A128A1110240A12DB
:100BB4008A110D30F500FB30F400F40BDF2DF50B3A
:100BC400DF2DE42D30300A128A1110240A128A1102
:100BD4004230F400F40BEC2D000030300A128A117C
:100BE40010240A128A114230F400F40BF72D00008D
:100BF40038300A128A1110240A128A112730F4009C
:100C0400F40B022E052E08300A128A1110240A123F
:100C14008A112730F400F40B0D2E102E01300A1225
:100C24008A1110240A128A110D30F500FB30F400E9
:100C3400F40B1A2EF50B1A2E1F2E06300A128A11E7
:100C440010240A128A112730F400F40B272E2A2EBE
:100C54000C300A128A1110240A128A112730F40067
:100C6400F40B322E352E08000A128A11F0230A12D0
:100C74008A110A128A1173230A128A110A128A111A
:100C8400AE230A128A110A128A11CC250A128A1179
:100C94000A128A11A1230A128A110A128A115624ED
:100CA4000A128A1183120313CB004B08A5004130AA
:100CB40083120313CC00ED30CB00CB0B5F2ECC0B97
:100CC4005F2E642E0A128A117E240A128A1183125C
:100CD4000313CB00CC014B08A2004C08A300413005
:100CE40083120313CC00ED30CB00CB0B772ECC0B4F
:100CF400772E7C2E0A128A11A6240A128A118312D4
:100D04000313CB004B08A400413083120313CC001F
:100D1400ED30CB00CB0B8C2ECC0B8C2E912E831272
:100D240003132508CB00CC014B08A0004C08A100FC
:100D34002108F1002008F0000A128A1196230A12F1
:100D44008A110A128A11A1230A128A11F401F40ADF
:100D540001300A128A1132240A128A111930F3005E
:100D64008030F4000A128A1146250A128A110B30C7
:100D740083120313CB004B08BA002508CC00CD0125
:100D84004C08BB004D08BC002308BE002208BD006F
:100D94002408CE00CF014E08BF004F08C000263003
:100DA4000A128A1105270A128A11F401F40A023080
:100DB4000A128A1132240A128A112630F3000030F2
:100DC400F4000A128A1146250A128A112730831266
:100DD4000313CC00F430CB00CB0BEE2ECC0BEE2E59
:100DE4000000063083120313CD001330CC00AD3065
:100DF400CB00CB0BFB2ECC0BFB2ECD0BFB2E4F2EA7
:100E04000A128A11002883120313C9003B30C1005F
:100E14004108C400D62F25304A060319122F132F78
:100E24001F2F4A08C1004908840041088313800029
:100E34000130C1004108C907D62FC5010130BA07E6
:100E4400FF303A0784000A128A110D200A128A110F
:100E5400CA00C100C2014208003A0319322FD62F3A
:100E64004108003A0319E82F643A03193D2F0D3A5B
:100E740003193D2FD62F4408840083130008C700AC
:100E8400840A0008C8000230C1004108C407C81F12
:100E94004C2F4D2F562F0330C1004108C504C709FC
:100EA400C809C70A0319C80ACA01CA0A4A08C100FC
:100EB4004107013E84000A128A110D200A128A1188
:100EC400C2000A128A110D200A128A11C3004308B3
:100ED4004802031D6F2F420847020318722F732F15
:100EE400742F7E2F0130C1004108CA0705304A061D
:100EF400031D7D2F7E2F582F450803390319832F97
:100F0400842F8F2F2D30C10049088400410883139A
:100F140080000130C1004108C9074A08C1004108E6
:100F2400C600CD2F0A30F8000030F9004608C10091
:100F34004107013E84000A128A110D200A128A1107
:100F4400F0000A128A110D200A128A11F1004808D1
:100F5400F3004708F2000A128A1188250A128A113E
:100F64007108FB007008FA000A128A11CE240A12D2
:100F74008A117808303E83120313C2004208CA0063
:100F84004A08C100490884004108831380000130E5
:100F9400C1004108C907FF30C1004108C607460A1D
:100FA400031DD52FD62F942F0130BA07FF303A07EF
:100FB40084000A128A110D200A128A11C100410804
:100FC400CA004A08031DE72FE82F0D2F49088400A3
:100FD4008313800108000A128A1172230A128A11EB
:100FE400D0008313203084003A300A128A118523FA
:0C0FF4000A128A1183010A128A11362E9B
:04400E00D620FF3F7A
:00000001FF
