:020000040000FA
:060000000A128A11FB2F19
:100F1400831203139F140800831603139F01813067
:100F2400831203139F00080000000000000000006B
:100F34000000000000000000000000000800831210
:100F440003139F1CA62FA72FA82FB82F0A128A11AC
:100F540096270A128A110A128A118A270A128A11FA
:100F6400831203131E08F1007108F00008008316B1
:100F740003170810831603138801860183160317C9
:100F84008901831203138501831603130514831641
:100F9400031708140A128A118E270A128A110800EC
:100FA4000A128A11B9270A128A110A128A11A12770
:100FB4000A128A1170088312031386000D3070021E
:100FC4000318E52FE62FEA2F081088100815D72FED
:100FD400123070020318EF2FF02FF42F081088142A
:100FE4000811D72F081488100811D72F0A128A1154
:0C0FF4000028F00183010A128A11D22F9C
:04400E00D720FF3F79
:00000001FF
