:020000040000FA
:060000000A128A110C280F
:10000800FE00030EF1000A08F2000A128A116D2898
:100018000A128A110F28F70183010A128A1144284B
:1000280083160317081083160313880186018316A5
:10003800031789018312031385018316031305141B
:100048008316031708140A128A11CD200A128A117E
:100058008B170B17831203138C11831603138C153C
:100068008516F301F401F50124300A128A11A32040
:100078000A128A110A128A11CD200A128A1108005E
:100088000A128A1114200A128A110A128A118B2064
:100098000A128A1177088312031386000D3077023B
:1000A8000318572858285C2808108810081549286C
:1000B800123077020318612862286628081088140D
:1000C8000811492808148810081149280A128A11A9
:1000D8000C28831203138C1D7228732884280A1293
:1000E8008A11C4200A128A11831203138800770820
:1000F8000A128A11DC200A128A11831203138C1146
:1001080072088A00710E8300FE0E7E0E09008312AB
:1001180003139F1C902891289228A2280A128A115A
:10012800B9200A128A110A128A11E2200A128A11C7
:10013800831203131E08F3007308F7000800F60083
:10014800831603138712761DAA28AB28AF287508D3
:1001580094008715B32873087504940087117608EE
:1001680074048312031394000800000000000000C8
:10017800000000000000000000000000000008006F
:100188000A128A11D5200A128A118312031313083E
:100198000800831603139F018130831203139F0005
:1001A800080083160313141CDA28DB28D528080056
:1001B800F0007008831203139300080083120313DE
:0401C8009F14080078
:04400E00D720FF3F79
:00000001FF
