:020000040000FA
:060000000A128A110C280F
:10000800FE00030EF1000A08F2000A128A113B28CA
:100018000A128A110F28F701F80183010A128A11BE
:10002800A92883120313071C1A281B2825288230A5
:10003800F400DD30F300F30B1F28F40B1F282428ED
:100048003A280718282829283A280130F7070318DA
:10005800F80A0030F807770886008230F400DD30AF
:10006800F300F30B3528F40B35283A2808008312DF
:1000780003138C1D4028412852280A128A11C220D5
:100088000A128A1183120313880077080A128A1148
:10009800D2200A128A11831203138C1172088A0063
:1000A800710E8300FE0E7E0E0900013083160313C5
:1000B80085000714871486018316031789018B1797
:1000C8000B17831203138C11831603138C158516D3
:1000D800F301F401F50124300A128A1193200A125F
:1000E8008A11080083120313871C7B287C28862822
:1000F8008230F400DD30F300F30B8028F40B802805
:1001080085289228871889288A289228FF30F70797
:100118000318F80AFF30F807770886000800F60089
:10012800831603138712761D9A289B289F28750823
:1001380094008715A328730875049400871176081E
:10014800740483120313940008000A128A115920B8
:100158000A128A110A128A11B7200A128A11AE28C5
:100168000A128A110C280A128A1115200A128A11F9
:100178000A128A1176200A128A1108000A128A11B4
:10018800CB200A128A11831203131308080083165E
:100198000313141CD028D128CB280800F0007008BD
:0801A800831203139300080009
:04400E00D120FF3F7F
:00000001FF
