:020000040000FA
:060000000A128A110C280F
:10000800FE00030EFB000A08FC000A128A11802970
:100018000A128A110F2883120313B401B501B6011D
:10002800B70183010A128A114F2983120313AA0008
:100038002A080319202821283528A51F242825281F
:1000480035282209AC002309AD002409AE00250992
:10005800AF00AC0A0319AD0A0319AE0A0319AF0AB7
:100068003D282508AF002408AE002308AD0022086B
:10007800AC002508240423042204031D4428452831
:100088004E280030A5000030A4000030A300003046
:10009800A200D4289630A6002608AB0060280130BC
:1000A800A6002608AB0701300310AF0CAE0CAD0C50
:1000B800AC0CFF3E031D5828FE302F05031D652894
:1000C8006628532882280130A6002608AB0701308D
:1000D800AC07003003180130AD07003003180130B9
:1000E800AE07003003180130AF0701300310AF0C22
:1000F800AE0CAD0CAC0CFF3E031D7A28FF302F056B
:10010800031D87288828672894280130AB0201300E
:10011800A6000310AC0DAD0DAE0DAF0DA60B8D28CE
:10012800AE1B972898289E2802302B0203189D287A
:100138009E2889282B18A128A228AA28FF30AC05B8
:10014800FF30AD057F30AE05FF30AF050310AB0CB7
:100158002B08A600A701A801A90118300310A60DB5
:10016800A70DA80DA90DFF3E031DB2282608AC0453
:100178002708AD042808AE042908AF042A08031983
:10018800C628C728CC28A51FCA28CB28CC28AF1733
:100198002F08A5002E08A4002D08A3002C08A200F3
:1001A80008000310720D730DF4007408FA007A0841
:1001B800031DDF28E028E9280030F3000030F200B2
:1001C8000030F1000030F0004E297008F40071088A
:1001D800F5007208F6007308F7001F300310F70CDB
:1001E800F60CF50CF40CFF3E031DF2287408F80019
:1001F8007808F900F217FF30F005FF30F105FF30FD
:10020800F2050030F3059630FA02FA1F0C290D2981
:1002180027297A08803A973E0318132914291529A3
:10022800E02801300310F30CF20CF10CF00CFF3E47
:10023800031D16290130F4007408FA07031D252947
:10024800262915293E2920307A02031C2C292D291C
:100258003929E0280130F4000310F00DF10DF20DFA
:10026800F30DF40B30290130FA027A08031D3D29F9
:100278003E292E2979080319422943294E29F009D4
:10028800F109F209F309F00A0319F10A0319F20A4C
:100298000319F30A08000A128A11AB210A128A11FB
:1002A8000A128A11F2210A128A110A128A110422E8
:1002B8000A128A1183120313B000B101B201B3010B
:1002C8003308A5003208A4003108A3003008A200B2
:1002D80000300A128A1119200A128A118312031394
:1002E8002508B7002408B6002308B5002208B40082
:1002F80054290A128A110C28831203138C1D85298C
:100308008629A4290A128A111C220A128A11831228
:10031800031388003708F3003608F2003508F100A7
:100328003408F0000A128A11D5200A128A117008BE
:100338000A128A1134220A128A11831203138C11A9
:100348007C088A007B0E8300FE0E7E0E0900831651
:1003580003170810831603138801831203138501FA
:100368008316031305148316031708148B170B172A
:10037800831203138C11831603138C1585168312AD
:100388000313A001A101A20124300A128A11D42169
:100398000A128A110A128A1125220A128A110800E1
:1003A80083120313A3008316031387128312031304
:1003B800231DDF29E029E629220883160313940068
:1003C8008715EC292008220483160313940087114B
:1003D80083120313230821049400080083120313D3
:1003E8009F1CF729F829F929032A0A128A111122D0
:1003F8000A128A110A128A113A220A128A1108006C
:10040800092A1E08A0002008A100831203139F18C0
:100418000E2A0F2A052A2108080000000000000003
:1004280000000000000000000000000000000800BC
:100438000A128A112D220A128A1183120313130831
:100448000800831603139F018130831203139F0052
:10045800080083160313141C322A332A2D2A080095
:10046800F00070088312031393000800831203132B
:040478009F140800C5
:04400E00D720FF3F79
:00000001FF
