:020000040000FA
:060000000A128A11FC2F18
:100F5800831203139F140800831603139F01813023
:100F6800831203139F000800000000000000000027
:100F780000000000000000000000000008008312CC
:100F880003139F1CC82FC92FCA2FD42F0A128A11E6
:100F9800B8270A128A110A128A11AC270A128A1172
:100FA80008000A128A11E7270A128A110A128A11FE
:100FB800C3270A128A11831203131E088800DA2F26
:100FC8000A128A11002883160317081083160313C0
:100FD80088018312031385018316031305148316EE
:100FE800031708140A128A11B0270A128A11080076
:080FF80083010A128A11D52FB2
:04400E00D720FF3F79
:00000001FF
